:020000020000FC
:040000000C9420003C
:10002C000C9418003F933FB73F9381503F913FBFD3
:10003C003F9118958CE390E05CE06CE00C0C0C1498
:10004C000C241424242424212121222122220C22B8
:10005C003FEF3DBF38E03EBF3FEF34B937B955B93C
:10006C0068B934EF3093890034E23093880030E083
:10007C00309380003CE030938100E8E4F0E0309174
:10008C006F00326030936F0078948030F1F79030CD
:10009C0091F0913099F09230A1F09330A9F0943016
:1000AC00B1F09530B9F09630C1F09730C9F0983076
:1000BC00D1F09930D9F091E084E01BC092E087E157
:1000CC0018C093E084E015C094E084E112C095E080
:1000DC0083E00FC096E085E10CC097E081E009C099
:1000EC0098E083E006C099E081E003C090E08CE3E7
:1000FC0000C030E0E90FF31FE90FF31F559155B91C
:0A010C00649168B9E8E4F0E0C0CFA8
:00000001FF