:020000020000FC
:040000000C9421003B
:10002C000C9418003F933FB73F93815041503F9140
:10003C003FBF3F9118958CE390E05CE06CE047E5A6
:10004C000C0C0C140C2414242424242121212221F2
:10005C0022220C223FEF3DBF38E03EBF3FEF34B9C8
:10006C0037B955B968B934EF3093890034E230931D
:10007C00880030E0309380003CE030938100ECE469
:10008C00F0E030916F00326030936F0078948030E4
:10009C00F1F7903091F0913099F09230A1F09330CB
:1000AC00B1F09430C1F09530C9F09630D1F0973062
:1000BC00D9F09830E1F09930F1F091E084E01EC075
:1000CC0092E087E11BC044E093E084E017C040E37A
:1000DC0094E084E113C095E083E010C096E085E1E4
:1000EC000DC097E081E00AC098E083E007C048E5C6
:1000FC0099E081E003C090E08CE300C030E0E90FB0
:10010C00F31FE90FF31F559155B9649168B9ECE4ED
:04011C00F0E0BDCF83
:00000001FF